:100000000000007EFB4FFF00F80100000000000030
:1000100000000000000000000000000000000000E0
:1000200000000000000000000000000000000000D0
:10003000000000000000000000007EFB4FFF00F801
:1000400001000000000000000000000000000000AF
:1000500000000000000000000000000000000000A0
:100060000000000000000000000000000000000090
:10007000007EFB4FFF00F8010000000000000000C0
:100080000000000000000000000000000000000070
:100090000000000000000000000000000000000060
:1000A00000000000000000007EFB4FFF00F8010090
:1000B0000000000000000000000000000000000040
:1000C0000000000000000000000000000000000030
:1000D0000000000000000000000000000000007EA2
:1000E000FB4FFF00F80100000000000000000000CE
:1000F0000000000000000000000000000000000000
:1001000000000000000000000000000000000000EF
:100110000000000000007EFB4FFF00F8010000001F
:1001200000000000000000000000000000000000CF
:1001300000000000000000000000000000000000BF
:10014000000000000000000000000000007EFB4FE7
:10015000FF00F801000000000000000000000000A7
:10016000000000000000000000000000000000008F
:10017000000000000000000000000000000000007F
:10018000000000007EFB4FFF00F8010000000000AF
:10019000000000000000000000000000000000005F
:1001A000000000000000000000000000000000004F
:1001B00000000000000000000000007EFB4FFF0078
:1001C000F801000000000000000000000000000036
:1001D000000000000000000000000000000000001F
:1001E000000000000000000000000000000000000F
:1001F00000007EFB4FFF00F801000000000000003F
:1002000000000000000000000000000000000000EE
:1002100000000000000000000000000000000000DE
:100220000000000000000000007EFB4FFF00F8010E
:1002300000000000000000000000000000000000BE
:1002400000000000000000000000000000000000AE
:10025000000000000000000000000000000000009E
:100260007EFB4FFF00F801000000000000000000CE
:10027000000000000000000000000000000000007E
:10028000000000000000000000000000000000006E
:10029000000000000000007EFB4FFF00F80100009E
:1002A000000000000000000000000000000000004E
:1002B000000000000000000000000000000000003E
:1002C00000000000000000000000000000007EFBB5
:1002D0004FFF00F8010000000000000000000000D7
:1002E000000000000000000000000000000000000E
:1002F00000000000000000000000000000000000FE
:1003000000000000007EFB4FFF00F801000000002D
:1003100000000000000000000000000000000000DD
:1003200000000000000000000000000000000000CD
:100330000000000000000000000000007EFB4FFFF6
:1003400000F80100000000000000000000000000B4
:10035000000000000000000000000000000000009D
:10036000000000000000000000000000000000008D
:100370000000007EFB4FFF00F801000000000000BD
:10038000000000000000000000000000000000006D
:10039000000000000000000000000000000000005D
:1003A000000000000000000000007EFB4FFF00F88E
:1003B000010000000000000000000000000000003C
:1003C000000000000000000000000000000000002D
:1003D000000000000000000000000000000000001D
:1003E000007EFB4FFF00F80100000000000000004D
:1003F00000000000000000000000000000000000FD
:1004000000000000000000000000000000000000EC
:1004100000000000000000007EFB4FFF00F801001C
:1004200000000000000000000000000000000000CC
:1004300000000000000000000000000000000000BC
:100440000000000000000000000000000000007E2E
:10045000FB4FFF00F801000000000000000000005A
:10046000000000000000000000000000000000008C
:10047000000000000000000000000000000000007C
:100480000000000000007EFB4FFF00F801000000AC
:10049000000000000000000000000000000000005C
:1004A000000000000000000000000000000000004C
:1004B000000000000000000000000000007EFB4F74
:1004C000FF00F80100000000000000000000000034
:1004D000000000000000000000000000000000001C
:1004E000000000000000000000000000000000000C
:1004F000000000007EFB4FFF00F80100000000003C
:1005000000000000000000000000000000000000EB
:1005100000000000000000000000000000000000DB
:1005200000000000000000000000007EFB4FFF0004
:10053000F8010000000000000000000000000000C2
:1005400000000000000000000000000000000000AB
:10055000000000000000000000000000000000009B
:1005600000007EFB4FFF00F80100000000000000CB
:10057000000000000000000000000000000000007B
:10058000000000000000000000000000000000006B
:100590000000000000000000007EFB4FFF00F8019B
:1005A000000000000000000000000000000000004B
:1005B000000000000000000000000000000000003B
:1005C000000000000000000000000000000000002B
:1005D0007EFB4FFF00F8010000000000000000005B
:1005E000000000000000000000000000000000000B
:1005F00000000000000000000000000000000000FB
:10060000000000000000007EFB4FFF00F80100002A
:1006100000000000000000000000000000000000DA
:1006200000000000000000000000000000000000CA
:1006300000000000000000000000000000007EFB41
:100640004FFF00F801000000000000000000000063
:10065000000000000000000000000000000000009A
:10066000000000000000000000000000000000008A
:1006700000000000007EFB4FFF00F80100000000BA
:10068000000000000000000000000000000000006A
:10069000000000000000000000000000000000005A
:1006A0000000000000000000000000007EFB4FFF83
:1006B00000F8010000000000000000000000000041
:1006C000000000000000000000000000000000002A
:1006D000000000000000000000000000000000001A
:1006E0000000007EFB4FFF00F8010000000000004A
:1006F00000000000000000000000000000000000FA
:1007000000000000000000000000000000000000E9
:10071000000000000000000000007EFB4FFF00F81A
:1007200001000000000000000000000000000000C8
:1007300000000000000000000000000000000000B9
:1007400000000000000000000000000000000000A9
:10075000007EFB4FFF00F8010000000000000000D9
:100760000000000000000000000000000000000089
:100770000000000000000000000000000000000079
:1007800000000000000000007EFB4FFF00F80100A9
:100790000000000000000000000000000000000059
:1007A0000000000000000000000000000000000049
:1007B0000000000000000000000000000000007EBB
:1007C000FB4FFF00F80100000000000000000000E7
:1007D0000000000000000000000000000000000019
:1007E0000000000000000000000000000000000009
:1007F0000000000000007EFB4FFF00F80100000039
:1008000000000000000000000000000000000000E8
:1008100000000000000000000000000000000000D8
:10082000000000000000000000000000007EFB4F00
:10083000FF00F801000000000000000000000000C0
:1008400000000000000000000000000000000000A8
:100850000000000000000000000000000000000098
:10086000000000007EFB4FFF00F8010000000000C8
:100870000000000000000000000000000000000078
:100880000000000000000000000000000000000068
:1008900000000000000000000000007EFB4FFF0091
:1008A000F80100000000000000000000000000004F
:1008B0000000000000000000000000000000000038
:1008C0000000000000000000000000000000000028
:1008D00000007EFB4FFF00F8010000000000000058
:1008E0000000000000000000000000000000000008
:1008F00000000000000000000000000000000000F8
:100900000000000000000000007EFB4FFF00F80127
:1009100000000000000000000000000000000000D7
:1009200000000000000000000000000000000000C7
:1009300000000000000000000000000000000000B7
:100940007EFB4FFF00F801000000000000000000E7
:100950000000000000000000000000000000000097
:100960000000000000000000000000000000000087
:10097000000000000000007EFB4FFF00F8010000B7
:100980000000000000000000000000000000000067
:100990000000000000000000000000000000000057
:1009A00000000000000000000000000000007EFBCE
:1009B0004FFF00F8010000000000000000000000F0
:1009C0000000000000000000000000000000000027
:1009D0000000000000000000000000000000000017
:1009E00000000000007EFB4FFF00F8010000000047
:1009F00000000000000000000000000000000000F7
:100A000000000000000000000000000000000000E6
:100A10000000000000000000000000007EFB4FFF0F
:100A200000F80100000000000000000000000000CD
:100A300000000000000000000000000000000000B6
:100A400000000000000000000000000000000000A6
:100A50000000007EFB4FFF00F801000000000000D6
:100A60000000000000000000000000000000000086
:100A70000000000000000000000000000000000076
:100A8000000000000000000000007EFB4FFF00F8A7
:100A90000100000000000000000000000000000055
:100AA0000000000000000000000000000000000046
:100AB0000000000000000000000000000000000036
:100AC000007EFB4FFF00F801000000000000000066
:100AD0000000000000000000000000000000000016
:100AE0000000000000000000000000000000000006
:100AF00000000000000000007EFB4FFF00F8010036
:100B000000000000000000000000000000000000E5
:100B100000000000000000000000000000000000D5
:100B20000000000000000000000000000000007E47
:100B3000FB4FFF00F8010000000000000000000073
:100B400000000000000000000000000000000000A5
:100B50000000000000000000000000000000000095
:100B60000000000000007EFB4FFF00F801000000C5
:100B70000000000000000000000000000000000075
:100B80000000000000000000000000000000000065
:100B9000000000000000000000000000007EFB4F8D
:100BA000FF00F8010000000000000000000000004D
:100BB0000000000000000000000000000000000035
:100BC0000000000000000000000000000000000025
:100BD000000000007EFB4FFF00F801000000000055
:100BE0000000000000000000000000000000000005
:100BF00000000000000000000000000000000000F5
:100C000000000000000000000000007EFB4FFF001D
:100C1000F8010000000000000000000000000000DB
:100C200000000000000000000000000000000000C4
:100C300000000000000000000000000000000000B4
:100C400000007EFB4FFF00F80100000000000000E4
:100C50000000000000000000000000000000000094
:100C60000000000000000000000000000000000084
:100C70000000000000000000007EFB4FFF00F801B4
:100C80000000000000000000000000000000000064
:100C90000000000000000000000000000000000054
:100CA0000000000000000000000000000000000044
:100CB0007EFB4FFF00F80100000000000000000074
:100CC0000000000000000000000000000000000024
:100CD0000000000000000000000000000000000014
:100CE000000000000000007EFB4FFF00F801000044
:100CF00000000000000000000000000000000000F4
:100D000000000000000000000000000000000000E3
:100D100000000000000000000000000000007EFB5A
:100D20004FFF00F80100000000000000000000007C
:100D300000000000000000000000000000000000B3
:100D400000000000000000000000000000000000A3
:100D500000000000007EFB4FFF00F80100000000D3
:100D60000000000000000000000000000000000083
:100D70000000000000000000000000000000000073
:100D80000000000000000000000000007EFB4FFF9C
:100D900000F801000000000000000000000000005A
:100DA0000000000000000000000000000000000043
:100DB0000000000000000000000000000000000033
:100DC0000000007EFB4FFF00F80100000000000063
:100DD0000000000000000000000000000000000013
:100DE0000000000000000000000000000000000003
:100DF000000000000000000000007EFB4FFF00F834
:100E000001000000000000000000000000000000E1
:100E100000000000000000000000000000000000D2
:100E200000000000000000000000000000000000C2
:100E3000007EFB4FFF00F8010000000000000000F2
:100E400000000000000000000000000000000000A2
:100E50000000000000000000000000000000000092
:100E600000000000000000007EFB4FFF00F80100C2
:100E70000000000000000000000000000000000072
:100E80000000000000000000000000000000000062
:100E90000000000000000000000000000000007ED4
:100EA000FB4FFF00F8010000000000000000000000
:100EB0000000000000000000000000000000000032
:100EC0000000000000000000000000000000000022
:100ED0000000000000007EFB4FFF00F80100000052
:100EE0000000000000000000000000000000000002
:100EF00000000000000000000000000000000000F2
:100F0000000000000000000000000000007EFB4F19
:100F1000FF00F801000000000000000000000000D9
:100F200000000000000000000000000000000000C1
:100F300000000000000000000000000000000000B1
:100F4000000000007EFB4FFF00F8010000000000E1
:100F50000000000000000000000000000000000091
:100F60000000000000000000000000000000000081
:100F700000000000000000000000007EFB4FFF00AA
:100F8000F801000000000000000000000000000068
:100F90000000000000000000000000000000000051
:100FA0000000000000000000000000000000000041
:100FB00000007EFB4FFF00F8010000000000000071
:100FC0000000000000000000000000000000000021
:100FD0000000000000000000000000000000000011
:100FE0000000000000000000007EFB4FFF00F80141
:100FF00000000000000000000000000000000000F1
:1010000000000000000000000000000000000000E0
:1010100000000000000000000000000000000000D0
:101020007EFB4FFF00F80100000000000000000000
:1010300000000000000000000000000000000000B0
:1010400000000000000000000000000000000000A0
:10105000000000000000007EFB4FFF00F8010000D0
:101060000000000000000000000000000000000080
:101070000000000000000000000000000000000070
:1010800000000000000000000000000000007EFBE7
:101090004FFF00F801000000000000000000000009
:1010A0000000000000000000000000000000000040
:1010B0000000000000000000000000000000000030
:1010C00000000000007EFB4FFF00F8010000000060
:1010D0000000000000000000000000000000000010
:1010E0000000000000000000000000000000000000
:1010F0000000000000000000000000007EFB4FFF29
:1011000000F80100000000000000000000000000E6
:1011100000000000000000000000000000000000CF
:1011200000000000000000000000000000000000BF
:101130000000007EFB4FFF00F801000000000000EF
:10114000000000000000000000000000000000009F
:10115000000000000000000000000000000000008F
:10116000000000000000000000007EFB4FFF00F8C0
:10117000010000000000000000000000000000006E
:10118000000000000000000000000000000000005F
:10119000000000000000000000000000000000004F
:1011A000007EFB4FFF00F80100000000000000007F
:1011B000000000000000000000000000000000002F
:1011C000000000000000000000000000000000001F
:1011D00000000000000000007EFB4FFF00F801004F
:1011E00000000000000000000000000000000000FF
:1011F00000000000000000000000000000000000EF
:101200000000000000000000000000000000007E60
:10121000FB4FFF00F801000000000000000000008C
:1012200000000000000000000000000000000000BE
:1012300000000000000000000000000000000000AE
:101240000000000000007EFB4FFF00F801000000DE
:10125000000000000000000000000000000000008E
:10126000000000000000000000000000000000007E
:10127000000000000000000000000000007EFB4FA6
:10128000FF00F80100000000000000000000000066
:10129000000000000000000000000000000000004E
:1012A000000000000000000000000000000000003E
:1012B000000000007EFB4FFF00F80100000000006E
:1012C000000000000000000000000000000000001E
:1012D000000000000000000000000000000000000E
:1012E00000000000000000000000007EFB4FFF0037
:1012F000F8010000000000000000000000000000F5
:1013000000000000000000000000000000000000DD
:1013100000000000000000000000000000000000CD
:1013200000007EFB4FFF00F80100000000000000FD
:1013300000000000000000000000000000000000AD
:10134000000000000000000000000000000000009D
:101350000000000000000000007EFB4FFF00F801CD
:10136000000000000000000000000000000000007D
:10137000000000000000000000000000000000006D
:10138000000000000000000000000000000000005D
:101390007EFB4FFF00F8010000000000000000008D
:1013A000000000000000000000000000000000003D
:1013B000000000000000000000000000000000002D
:1013C000000000000000007EFB4FFF00F80100005D
:1013D000000000000000000000000000000000000D
:1013E00000000000000000000000000000000000FD
:1013F00000000000000000000000000000007EFB74
:101400004FFF00F801000000000000000000000095
:1014100000000000000000000000000000000000CC
:1014200000000000000000000000000000000000BC
:1014300000000000007EFB4FFF00F80100000000EC
:10144000000000000000000000000000000000009C
:10145000000000000000000000000000000000008C
:101460000000000000000000000000007EFB4FFFB5
:1014700000F8010000000000000000000000000073
:10148000000000000000000000000000000000005C
:10149000000000000000000000000000000000004C
:1014A0000000007EFB4FFF00F8010000000000007C
:1014B000000000000000000000000000000000002C
:1014C000000000000000000000000000000000001C
:1014D000000000000000000000007EFB4FFF00F84D
:1014E00001000000000000000000000000000000FB
:1014F00000000000000000000000000000000000EC
:1015000000000000000000000000000000000000DB
:10151000007EFB4FFF00F80100000000000000000B
:1015200000000000000000000000000000000000BB
:1015300000000000000000000000000000000000AB
:1015400000000000000000007EFB4FFF00F80100DB
:10155000000000000000000000000000000000008B
:10156000000000000000000000000000000000007B
:101570000000000000000000000000000000007EED
:10158000FB4FFF00F8010000000000000000000019
:10159000000000000000000000000000000000004B
:1015A000000000000000000000000000000000003B
:1015B0000000000000007EFB4FFF00F8010000006B
:1015C000000000000000000000000000000000001B
:1015D000000000000000000000000000000000000B
:1015E000000000000000000000000000007EFB4F33
:1015F000FF00F801000000000000000000000000F3
:1016000000000000000000000000000000000000DA
:1016100000000000000000000000000000000000CA
:10162000000000007EFB4FFF00F8010000000000FA
:1016300000000000000000000000000000000000AA
:10164000000000000000000000000000000000009A
:1016500000000000000000000000007EFB4FFF00C3
:10166000F801000000000000000000000000000081
:10167000000000000000000000000000000000006A
:10168000000000000000000000000000000000005A
:1016900000007EFB4FFF00F801000000000000008A
:1016A000000000000000000000000000000000003A
:1016B000000000000000000000000000000000002A
:1016C0000000000000000000007EFB4FFF00F8015A
:1016D000000000000000000000000000000000000A
:1016E00000000000000000000000000000000000FA
:1016F00000000000000000000000000000000000EA
:101700007EFB4FFF00F80100000000000000000019
:1017100000000000000000000000000000000000C9
:1017200000000000000000000000000000000000B9
:10173000000000000000007EFB4FFF00F8010000E9
:101740000000000000000000000000000000000099
:101750000000000000000000000000000000000089
:1017600000000000000000000000000000007EFB00
:101770004FFF00F801000000000000000000000022
:101780000000000000000000000000000000000059
:101790000000000000000000000000000000000049
:1017A00000000000007EFB4FFF00F8010000000079
:1017B0000000000000000000000000000000000029
:1017C0000000000000000000000000000000000019
:1017D0000000000000000000000000007EFB4FFF42
:1017E00000F8010000000000000000000000000000
:1017F00000000000000000000000000000000000E9
:1018000000000000000000000000000000000000D8
:101810000000007EFB4FFF00F80100000000000008
:1018200000000000000000000000000000000000B8
:1018300000000000000000000000000000000000A8
:10184000000000000000000000007EFB4FFF00F8D9
:101850000100000000000000000000000000000087
:101860000000000000000000000000000000000078
:101870000000000000000000000000000000000068
:10188000007EFB4FFF00F801000000000000000098
:101890000000000000000000000000000000000048
:1018A0000000000000000000000000000000000038
:1018B00000000000000000007EFB4FFF00F8010068
:1018C0000000000000000000000000000000000018
:1018D0000000000000000000000000000000000008
:1018E0000000000000000000000000000000007E7A
:1018F000FB4FFF00F80100000000000000000000A6
:1019000000000000000000000000000000000000D7
:1019100000000000000000000000000000000000C7
:101920000000000000007EFB4FFF00F801000000F7
:1019300000000000000000000000000000000000A7
:101940000000000000000000000000000000000097
:10195000000000000000000000000000007EFB4FBF
:10196000FF00F8010000000000000000000000007F
:101970000000000000000000000000000000000067
:101980000000000000000000000000000000000057
:10199000000000007EFB4FFF00F801000000000087
:1019A0000000000000000000000000000000000037
:1019B0000000000000000000000000000000000027
:1019C00000000000000000000000007EFB4FFF0050
:1019D000F80100000000000000000000000000000E
:1019E00000000000000000000000000000000000F7
:1019F00000000000000000000000000000000000E7
:101A000000007EFB4FFF00F8010000000000000016
:101A100000000000000000000000000000000000C6
:101A200000000000000000000000000000000000B6
:101A30000000000000000000007EFB4FFF00F801E6
:101A40000000000000000000000000000000000096
:101A50000000000000000000000000000000000086
:101A60000000000000000000000000000000000076
:101A70007EFB4FFF00F801000000000000000000A6
:101A80000000000000000000000000000000000056
:101A90000000000000000000000000000000000046
:101AA000000000000000007EFB4FFF00F801000076
:101AB0000000000000000000000000000000000026
:101AC0000000000000000000000000000000000016
:101AD00000000000000000000000000000007EFB8D
:101AE0004FFF00F8010000000000000000000000AF
:101AF00000000000000000000000000000000000E6
:101B000000000000000000000000000000000000D5
:101B100000000100007EFB4FFF00F8010000000004
:101B200000000000000000000000000000000000B5
:101B300000000000000000000000000000000000A5
:101B40000000000000000000000100007EFB4FFFCD
:101B500000F801000000000000000000000000008C
:101B60000000000000000000000000000000000075
:101B70000000000000000000000000000000000065
:101B80000100007EFB4FFF00F80100000000000094
:101B90000000000000000000000000000000000045
:101BA0000000000000000000000000000000000035
:101BB000000000000000000100007EFB4FFF00F865
:101BC0000100000000000000000000000000000014
:101BD0000000000000000000000000000000000005
:101BE00000000000000000000000000000000100F4
:101BF000007EFB4FFF00F801000000000000000025
:101C000000000000000000000000000000000000D4
:101C100000000000000000000000000000000000C4
:101C200000000000000100007EFB4FFF00F80100F3
:101C300000000000000000000000000000000000A4
:101C40000000000000000000000000000000000094
:101C50000000000000000000000000000100007E05
:101C6000FB4FFF00F8010000000000000000000032
:101C70000000000000000000000000000000000064
:101C80000000000000000000000000000000000054
:101C90000000000100007EFB4FFF00F80100000083
:101CA0000000000000000000000000000000000034
:101CB0000000000000000000000000000000000024
:101CC000000000000000000000000100007EFB4F4B
:101CD000FF00F8010000000000000000000000000C
:101CE00000000000000000000000000000000000F4
:101CF00000000000000000000000000000000000E4
:101D0000000100007EFB4FFF00F801000000000012
:101D100000000000000000000000000000000000C3
:101D200000000000000000000000000000000000B3
:101D300000000000000000000100007EFB4FFF00DB
:101D4000F80100000000000000000000000000009A
:101D50000000000000000000000000000000000083
:101D60000000000000000000000000000000000172
:101D700000007EFB4FFF00F80100000000000000A3
:101D80000000000000000000000000000000000053
:101D90000000000000000000000000000000000043
:101DA0000000000000000100007EFB4FFF00F80172
:101DB0000000000000000000000000000000000023
:101DC0000000000000000000000000000000000013
:101DD0000000000000000000000000000001000002
:101DE0007EFB4FFF00F80100000000000000000033
:101DF00000000000000000000000000000000000E3
:101E000000000000000000000000000000000000D2
:101E1000000000000100007EFB4FFF00F801000001
:101E200000000000000000000000000000000000B2
:101E300000000000000000000000000000000000A2
:101E400000000000000000000000000100007EFB18
:101E50004FFF00F80100000000000000000000003B
:101E60000000000000000000000000000000000072
:101E70000000000000000000000000000000000062
:101E800000000100007EFB4FFF00F8010000000091
:101E90000000000000000000000000000000000042
:101EA0000000000000000000000000000000000032
:101EB0000000000000000000000100007EFB4FFF5A
:101EC00000F8010000000000000000000000000019
:101ED0000000000000000000000000000000000002
:101EE00000000000000000000000000000000000F2
:101EF0000100007EFB4FFF00F80100000000000021
:101F000000000000000000000000000000000000D1
:101F100000000000000000000000000000000000C1
:101F2000000000000000000100007EFB4FFF00F8F1
:101F300001000000000000000000000000000000A0
:101F40000000000000000000000000000000000091
:101F50000000000000000000000000000000010080
:101F6000007EFB4FFF00F8010000000000000000B1
:101F70000000000000000000000000000000000061
:101F80000000000000000000000000000000000051
:101F900000000000000100007EFB4FFF00F8010080
:101FA0000000000000000000000000000000000031
:101FB0000000000000000000000000000000000021
:101FC0000000000000000000000000000100007E92
:101FD000FB4FFF00F80100000000000000000000BF
:101FE00000000000000000000000000000000000F1
:101FF00000000000000000000000000000000000E1
:102000000000000100007EFB4FFF00F8010000000F
:1020100000000000000000000000000000000000C0
:1020200000000000000000000000000000000000B0
:10203000000000000000000000000100007EFB4FD7
:10204000FF00F80100000000000000000000000098
:102050000000000000000000000000000000000080
:102060000000000000000000000000000000000070
:10207000000100007EFB4FFF00F80100000000009F
:102080000000000000000000000000000000000050
:102090000000000000000000000000000000000040
:1020A00000000000000000000100007EFB4FFF0068
:1020B000F801000000000000000000000000000027
:1020C0000000000000000000000000000000000010
:1020D00000000000000000000000000000000001FF
:1020E00000007EFB4FFF00F8010000000000000030
:1020F00000000000000000000000000000000000E0
:1021000000000000000000000000000000000000CF
:102110000000000000000100007EFB4FFF00F801FE
:1021200000000000000000000000000000000000AF
:10213000000000000000000000000000000000009F
:10214000000000000000000000000000000100008E
:102150007EFB4FFF00F801000000000000000000BF
:10216000000000000000000000000000000000006F
:10217000000000000000000000000000000000005F
:10218000000000000100007EFB4FFF00F80100008E
:10219000000000000000000000000000000000003F
:1021A000000000000000000000000000000000002F
:1021B00000000000000000000000000100007EFBA5
:1021C0004FFF00F8010000000000000000000000C8
:1021D00000000000000000000000000000000000FF
:1021E00000000000000000000000000000000000EF
:1021F00000000100007EFB4FFF00F801000000001E
:1022000000000000000000000000000000000000CE
:1022100000000000000000000000000000000000BE
:102220000000000000000000000100007EFB4FFFE6
:1022300000F80100000000000000000000000000A5
:10224000000000000000000000000000000000008E
:10225000000000000000000000000000000000007E
:102260000100007EFB4FFF00F801000000000000AD
:10227000000000000000000000000000000000005E
:10228000000000000000000000000000000000004E
:10229000000000000000000100007EFB4FFF00F87E
:1022A000010000000000000000000000000000002D
:1022B000000000000000000000000000000000001E
:1022C000000000000000000000000000000001000D
:1022D000007EFB4FFF00F80100000000000000003E
:1022E00000000000000000000000000000000000EE
:1022F00000000000000000000000000000000000DE
:1023000000000000000100007EFB4FFF00F801000C
:1023100000000000000000000000000000000000BD
:1023200000000000000000000000000000000000AD
:102330000000000000000000000000000100007E1E
:10234000FB4FFF00F801000000000000000000004B
:10235000000000000000000000000000000000007D
:10236000000000000000000000000000000000006D
:102370000000000100007EFB4FFF00F8010000009C
:10238000000000000000000000000000000000004D
:10239000000000000000000000000000000000003D
:1023A000000000000000000000000100007EFB4F64
:1023B000FF00F80100000000000000000000000025
:1023C000000000000000000000000000000000000D
:1023D00000000000000000000000000000000000FD
:1023E000000100007EFB4FFF00F80100000000002C
:1023F00000000000000000000000000000000000DD
:1024000000000000000000000000000000000000CC
:1024100000000000000000000100007EFB4FFF00F4
:10242000F8010000000000000000000000000000B3
:10243000000000000000000000000000000000009C
:10244000000000000000000000000000000000018B
:1024500000007EFB4FFF00F80100000000000000BC
:10246000000000000000000000000000000000006C
:10247000000000000000000000000000000000005C
:102480000000000000000100007EFB4FFF00F8018B
:10249000000000000000000000000000000000003C
:1024A000000000000000000000000000000000002C
:1024B000000000000000000000000000000100001B
:1024C0007EFB4FFF00F8010000000000000000004C
:1024D00000000000000000000000000000000000FC
:1024E00000000000000000000000000000000000EC
:1024F000000000000100007EFB4FFF00F80100001B
:1025000000000000000000000000000000000000CB
:1025100000000000000000000000000000000000BB
:1025200000000000000000000000000100007EFB31
:102530004FFF00F801000000000000000000000054
:10254000000000000000000000000000000000008B
:10255000000000000000000000000000000000007B
:1025600000000100007EFB4FFF00F80100000000AA
:10257000000000000000000000000000000000005B
:10258000000000000000000000000000000000004B
:102590000000000000000000000100007EFB4FFF73
:1025A00000F8010000000000000000000000000032
:1025B000000000000000000000000000000000001B
:1025C000000000000000000000000000000000000B
:1025D0000100007EFB4FFF00F8010000000000003A
:1025E00000000000000000000000000000000000EB
:1025F00000000000000000000000000000000000DB
:10260000000000000000000100007EFB4FFF00F80A
:1026100001000000000000000000000000000000B9
:1026200000000000000000000000000000000000AA
:102630000000000000000000000000000000010099
:10264000007EFB4FFF00F8010000000000000000CA
:10265000000000000000000000000000000000007A
:10266000000000000000000000000000000000006A
:1026700000000000000100007EFB4FFF00F8010099
:10268000000000000000000000000000000000004A
:10269000000000000000000000000000000000003A
:1026A0000000000000000000000000000100007EAB
:1026B000FB4FFF00F80100000000000000000000D8
:1026C000000000000000000000000000000000000A
:1026D00000000000000000000000000000000000FA
:1026E0000000000100007EFB4FFF00F80100000029
:1026F00000000000000000000000000000000000DA
:1027000000000000000000000000000000000000C9
:10271000000000000000000000000100007EFB4FF0
:10272000FF00F801000000000000000000000000B1
:102730000000000000000000000000000000000099
:102740000000000000000000000000000000000089
:10275000000100007EFB4FFF00F8010000000000B8
:102760000000000000000000000000000000000069
:102770000000000000000000000000000000000059
:1027800000000000000000000100007EFB4FFF0081
:10279000F801000000000000000000000000000040
:1027A0000000000000000000000000000000000029
:1027B0000000000000000000000000000000000118
:1027C00000007EFB4FFF00F8010000000000000049
:1027D00000000000000000000000000000000000F9
:1027E00000000000000000000000000000000000E9
:1027F0000000000000000100007EFB4FFF00F80118
:1028000000000000000000000000000000000000C8
:1028100000000000000000000000000000000000B8
:1028200000000000000000000000000000010000A7
:102830007EFB4FFF00F801000000000000000000D8
:102840000000000000000000000000000000000088
:102850000000000000000000000000000000000078
:10286000000000000100007EFB4FFF00F8010000A7
:102870000000000000000000000000000000000058
:102880000000000000000000000000000000000048
:1028900000000000000000000000000100007EFBBE
:1028A0004FFF00F8010000000000000000000000E1
:1028B0000000000000000000000000000000000018
:1028C0000000000000000000000000000000000008
:1028D00000000100007EFB4FFF00F8010000000037
:1028E00000000000000000000000000000000000E8
:1028F00000000000000000000000000000000000D8
:102900000000000000000000000100007EFB4FFFFF
:1029100000F80100000000000000000000000000BE
:1029200000000000000000000000000000000000A7
:102930000000000000000000000000000000000097
:102940000100007EFB4FFF00F801000000000000C6
:102950000000000000000000000000000000000077
:102960000000000000000000000000000000000067
:10297000000000000000000100007EFB4FFF00F897
:102980000100000000000000000000000000000046
:102990000000000000000000000000000000000037
:1029A0000000000000000000000000000000010026
:1029B000007EFB4FFF00F801000000000000000057
:1029C0000000000000000000000000000000000007
:1029D00000000000000000000000000000000000F7
:1029E00000000000000100007EFB4FFF00F8010026
:1029F00000000000000000000000000000000000D7
:102A000000000000000000000000000000000000C6
:102A10000000000000000000000000000100007E37
:102A2000FB4FFF00F8010000000000000000000064
:102A30000000000000000000000000000000000096
:102A40000000000000000000000000000000000086
:102A50000000000100007EFB4FFF00F801000000B5
:102A60000000000000000000000000000000000066
:102A70000000000000000000000000000000000056
:102A8000000000000000000000000100007EFB4F7D
:102A9000FF00F8010000000000000000000000003E
:102AA0000000000000000000000000000000000026
:102AB0000000000000000000000000000000000016
:102AC000000100007EFB4FFF00F801000000000045
:102AD00000000000000000000000000000000000F6
:102AE00000000000000000000000000000000000E6
:102AF00000000000000000000100007EFB4FFF000E
:102B0000F8010000000000000000000000000000CC
:102B100000000000000000000000000000000000B5
:102B200000000000000000000000000000000001A4
:102B300000007EFB4FFF00F80100000000000000D5
:102B40000000000000000000000000000000000085
:102B50000000000000000000000000000000000075
:102B60000000000000000100007EFB4FFF00F801A4
:102B70000000000000000000000000000000000055
:102B80000000000000000000000000000000000045
:102B90000000000000000000000000000001000034
:102BA0007EFB4FFF00F80100000000000000000065
:102BB0000000000000000000000000000000000015
:102BC0000000000000000000000000000000000005
:102BD000000000000100007EFB4FFF00F801000034
:102BE00000000000000000000000000000000000E5
:102BF00000000000000000000000000000000000D5
:102C000000000000000000000000000100007EFB4A
:102C10004FFF00F80100000000000000000000006D
:102C200000000000000000000000000000000000A4
:102C30000000000000000000000000000000000094
:102C400000000100007EFB4FFF00F80100000000C3
:102C50000000000000000000000000000000000074
:102C60000000000000000000000000000000000064
:102C70000000000000000000000100007EFB4FFF8C
:102C800000F801000000000000000000000000004B
:102C90000000000000000000000000000000000034
:102CA0000000000000000000000000000000000024
:102CB0000100007EFB4FFF00F80100000000000053
:102CC0000000000000000000000000000000000004
:102CD00000000000000000000000000000000000F4
:102CE000000000000000000100007EFB4FFF00F824
:102CF00001000000000000000000000000000000D3
:102D000000000000000000000000000000000000C3
:102D100000000000000000000000000000000100B2
:102D2000007EFB4FFF00F8010000000000000000E3
:102D30000000000000000000000000000000000093
:102D40000000000000000000000000000000000083
:102D500000000000000100007EFB4FFF00F80100B2
:102D60000000000000000000000000000000000063
:102D70000000000000000000000000000000000053
:102D80000000000000000000000000000100007EC4
:102D9000FB4FFF00F80100000000000000000000F1
:102DA0000000000000000000000000000000000023
:102DB0000000000000000000000000000000000013
:102DC0000000000100007EFB4FFF00F80100000042
:102DD00000000000000000000000000000000000F3
:102DE00000000000000000000000000000000000E3
:102DF000000000000000000000000100007EFB4F0A
:102E0000FF00F801000000000000000000000000CA
:102E100000000000000000000000000000000000B2
:102E200000000000000000000000000000000000A2
:102E3000000100007EFB4FFF00F8010000000000D1
:102E40000000000000000000000000000000000082
:102E50000000000000000000000000000000000072
:102E600000000000000000000100007EFB4FFF009A
:102E7000F801000000000000000000000000000059
:102E80000000000000000000000000000000000042
:102E90000000000000000000000000000000000131
:102EA00000007EFB4FFF00F8010000000000000062
:102EB0000000000000000000000000000000000012
:102EC0000000000000000000000000000000000002
:102ED0000000000000000100007EFB4FFF00F80131
:102EE00000000000000000000000000000000000E2
:102EF00000000000000000000000000000000000D2
:102F000000000000000000000000000000010000C0
:102F10007EFB4FFF00F801000000000000000000F1
:102F200000000000000000000000000000000000A1
:102F30000000000000000000000000000000000091
:102F4000000000000100007EFB4FFF00F8010000C0
:102F50000000000000000000000000000000000071
:102F60000000000000000000000000000000000061
:102F700000000000000000000000000100007EFBD7
:102F80004FFF00F8010000000000000000000000FA
:102F90000000000000000000000000000000000031
:102FA0000000000000000000000000000000000021
:102FB00000000100007EFB4FFF00F8010000000050
:102FC0000000000000000000000000000000000001
:102FD00000000000000000000000000000000000F1
:102FE0000000000000000000000100007EFB4FFF19
:102FF00000F80100000000000000000000000000D8
:1030000000000000000000000000000000000000C0
:1030100000000000000000000000000000000000B0
:103020000100007EFB4FFF00F801000000000000DF
:103030000000000000000000000000000000000090
:103040000000000000000000000000000000000080
:10305000000000000000000100007EFB4FFF00F8B0
:10306000010000000000000000000000000000005F
:103070000000000000000000000000000000000050
:10308000000000000000000000000000000001003F
:10309000007EFB4FFF00F801000000000000000070
:1030A0000000000000000000000000000000000020
:1030B0000000000000000000000000000000000010
:1030C00000000000000100007EFB4FFF00F801003F
:1030D00000000000000000000000000000000000F0
:1030E00000000000000000000000000000000000E0
:1030F0000000000000000000000000000100007E51
:10310000FB4FFF00F801000000000000000000007D
:1031100000000000000000000000000000000000AF
:10312000000000000000000000000000000000009F
:103130000000000100007EFB4FFF00F801000000CE
:10314000000000000000000000000000000000007F
:10315000000000000000000000000000000000006F
:10316000000000000000000000000100007EFB4F96
:10317000FF00F80100000000000000000000000057
:10318000000000000000000000000000000000003F
:10319000000000000000000000000000000000002F
:1031A000000100007EFB4FFF00F80100000000005E
:1031B000000000000000000000000000000000000F
:1031C00000000000000000000000000000000000FF
:1031D00000000000000000000100007EFB4FFF0027
:1031E000F8010000000000000000000000000000E6
:1031F00000000000000000000000000000000000CF
:1032000000000000000000000000000000000001BD
:1032100000007EFB4FFF00F80100000000000000EE
:10322000000000000000000000000000000000009E
:10323000000000000000000000000000000000008E
:103240000000000000000100007EFB4FFF00F801BD
:10325000000000000000000000000000000000006E
:10326000000000000000000000000000000000005E
:10327000000000000000000000000000000100004D
:103280007EFB4FFF00F8010000000000000000007E
:10329000000000000000000000000000000000002E
:1032A000000000000000000000000000000000001E
:1032B000000000000100007EFB4FFF00F80100004D
:1032C00000000000000000000000000000000000FE
:1032D00000000000000000000000000000000000EE
:1032E00000000000000000000000000100007EFB64
:1032F0004FFF00F801000000000000000000000087
:1033000000000000000000000000000000000000BD
:1033100000000000000000000000000000000000AD
:1033200000000100007EFB4FFF00F80100000000DC
:10333000000000000000000000000000000000008D
:10334000000000000000000000000000000000007D
:103350000000000000000000000100007EFB4FFFA5
:1033600000F8010000000000000000000000000064
:10337000000000000000000000000000000000004D
:10338000000000000000000000000000000000003D
:103390000100007EFB4FFF00F8010000000000006C
:1033A000000000000000000000000000000000001D
:1033B000000000000000000000000000000000000D
:1033C000000000000000000100007EFB4FFF00F83D
:1033D00001000000000000000000000000000000EC
:1033E00000000000000000000000000000000000DD
:1033F00000000000000000000000000000000100CC
:10340000007EFB4FFF00F8010000000000000000FC
:1034100000000000000000000000000000000000AC
:10342000000000000000000000000000000000009C
:1034300000000000000100007EFB4FFF00F80100CB
:10344000000000000000000000000000000000007C
:10345000000000000000000000000000000000006C
:103460000000000000000000000000000100007EDD
:10347000FB4FFF00F801000000000000000000000A
:10348000000000000000000000000000000000003C
:10349000000000000000000000000000000000002C
:1034A0000000000100007EFB4FFF00F8010000005B
:1034B000000000000000000000000000000000000C
:1034C00000000000000000000000000000000000FC
:1034D000000000000000000000000100007EFB4F23
:1034E000FF00F801000000000000000000000000E4
:1034F00000000000000000000000000000000000CC
:1035000000000000000000000000000000000000BB
:10351000000100007EFB4FFF00F8010000000000EA
:10352000000000000000000000000000000000009B
:10353000000000000000000000000000000000008B
:1035400000000000000000000100007EFB4FFF00B3
:10355000F801000000000000000000000000000072
:10356000000000000000000000000000000000005B
:10357000000000000000000000000000000000014A
:1035800000007EFB4FFF00F801000000000000007B
:10359000000000000000000000000000000000002B
:1035A000000000000000000000000000000000001B
:1035B0000000000000000100007EFB4FFF00F8014A
:1035C00000000000000000000000000000000000FB
:1035D00000000000000000000000000000000000EB
:1035E00000000000000000000000000000010000DA
:1035F0007EFB4FFF00F8010000000000000000000B
:1036000000000000000000000000000000000000BA
:1036100000000000000000000000000000000000AA
:10362000000000000100007EFB4FFF00F8010000D9
:10363000000000000000000000000000000000008A
:10364000000000000000000000000000000000007A
:1036500000000000000000000000000100007EFBF0
:103660004FFF00F801000000000000000000000013
:10367000000000000000000000000000000000004A
:10368000000000000000000000000000000000003A
:1036900000000200007EFB4FFF00F8010000000068
:1036A000000000000000000000000000000000001A
:1036B000000000000000000000000000000000000A
:1036C0000000000000000000000200007EFB4FFF31
:1036D00000F80100000000000000000000000000F1
:1036E00000000000000000000000000000000000DA
:1036F00000000000000000000000000000000000CA
:103700000200007EFB4FFF00F801000000000000F7
:1037100000000000000000000000000000000000A9
:103720000000000000000000000000000000000099
:10373000000000000000000200007EFB4FFF00F8C8
:103740000100000000000000000000000000000078
:103750000000000000000000000000000000000069
:103760000000000000000000000000000000020057
:10377000007EFB4FFF00F801000000000000000089
:103780000000000000000000000000000000000039
:103790000000000000000000000000000000000029
:1037A00000000000000200007EFB4FFF00F8010057
:1037B0000000000000000000000000000000000009
:1037C00000000000000000000000000000000000F9
:1037D0000000000000000000000000000200007E69
:1037E000FB4FFF00F8010000000000000000000097
:1037F00000000000000000000000000000000000C9
:1038000000000000000000000000000000000000B8
:103810000000000200007EFB4FFF00F801000000E6
:103820000000000000000000000000000000000098
:103830000000000000000000000000000000000088
:10384000000000000000000000000200007EFB4FAE
:10385000FF00F80100000000000000000000000070
:103860000000000000000000000000000000000058
:103870000000000000000000000000000000000048
:10388000000200007EFB4FFF00F801000000000076
:103890000000000000000000000000000000000028
:1038A0000000000000000000000000000000000018
:1038B00000000000000000000200007EFB4FFF003F
:1038C000F8010000000000000000000000000000FF
:1038D00000000000000000000000000000000000E8
:1038E00000000000000000000000000000000002D6
:1038F00000007EFB4FFF00F8010000000000000008
:1039000000000000000000000000000000000000B7
:1039100000000000000000000000000000000000A7
:103920000000000000000200007EFB4FFF00F801D5
:103930000000000000000000000000000000000087
:103940000000000000000000000000000000000077
:103950000000000000000000000000000002000065
:103960007EFB4FFF00F80100000000000000000097
:103970000000000000000000000000000000000047
:103980000000000000000000000000000000000037
:10399000000000000200007EFB4FFF00F801000065
:1039A0000000000000000000000000000000000017
:1039B0000000000000000000000000000000000007
:1039C00000000000000000000000000200007EFB7C
:1039D0004FFF00F8010000000000000000000000A0
:1039E00000000000000000000000000000000000D7
:1039F00000000000000000000000000000000000C7
:103A000000000200007EFB4FFF00F80100000000F4
:103A100000000000000000000000000000000000A6
:103A20000000000000000000000000000000000096
:103A30000000000000000000000200007EFB4FFFBD
:103A400000F801000000000000000000000000007D
:103A50000000000000000000000000000000000066
:103A60000000000000000000000000000000000056
:103A70000200007EFB4FFF00F80100000000000084
:103A80000000000000000000000000000000000036
:103A90000000000000000000000000000000000026
:103AA000000000000000000200007EFB4FFF00F855
:103AB0000100000000000000000000000000000005
:103AC00000000000000000000000000000000000F6
:103AD00000000000000000000000000000000200E4
:103AE000007EFB4FFF00F801000000000000000016
:103AF00000000000000000000000000000000000C6
:103B000000000000000000000000000000000000B5
:103B100000000000000200007EFB4FFF00F80100E3
:103B20000000000000000000000000000000000095
:103B30000000000000000000000000000000000085
:103B40000000000000000000000000000200007EF5
:103B5000FB4FFF00F8010000000000000000000023
:103B60000000000000000000000000000000000055
:103B70000000000000000000000000000000000045
:103B80000000000200007EFB4FFF00F80100000073
:103B90000000000000000000000000000000000025
:103BA0000000000000000000000000000000000015
:103BB000000000000000000000000200007EFB4F3B
:103BC000FF00F801000000000000000000000000FD
:103BD00000000000000000000000000000000000E5
:103BE00000000000000000000000000000000000D5
:103BF000000200007EFB4FFF00F801000000000003
:103C000000000000000000000000000000000000B4
:103C100000000000000000000000000000000000A4
:103C200000000000000000000200007EFB4FFF00CB
:103C3000F80100000000000000000000000000008B
:103C40000000000000000000000000000000000074
:103C50000000000000000000000000000000000262
:103C600000007EFB4FFF00F8010000000000000094
:103C70000000000000000000000000000000000044
:103C80000000000000000000000000000000000034
:103C90000000000000000200007EFB4FFF00F80162
:103CA0000000000000000000000000000000000014
:103CB0000000000000000000000000000000000004
:103CC00000000000000000000000000000020000F2
:103CD0007EFB4FFF00F80100000000000000000024
:103CE00000000000000000000000000000000000D4
:103CF00000000000000000000000000000000000C4
:103D0000000000000200007EFB4FFF00F8010000F1
:103D100000000000000000000000000000000000A3
:103D20000000000000000000000000000000000093
:103D300000000000000000000000000200007EFB08
:103D40004FFF00F80100000000000000000000002C
:103D50000000000000000000000000000000000063
:103D60000000000000000000000000000000000053
:103D700000000200007EFB4FFF00F8010000000081
:103D80000000000000000000000000000000000033
:103D90000000000000000000000000000000000023
:103DA0000000000000000000000200007EFB4FFF4A
:103DB00000F801000000000000000000000000000A
:103DC00000000000000000000000000000000000F3
:103DD00000000000000000000000000000000000E3
:103DE0000200007EFB4FFF00F80100000000000011
:103DF00000000000000000000000000000000000C3
:103E000000000000000000000000000000000000B2
:103E1000000000000000000200007EFB4FFF00F8E1
:103E20000100000000000000000000000000000091
:103E30000000000000000000000000000000000082
:103E40000000000000000000000000000000020070
:103E5000007EFB4FFF00F8010000000000000000A2
:103E60000000000000000000000000000000000052
:103E70000000000000000000000000000000000042
:103E800000000000000200007EFB4FFF00F8010070
:103E90000000000000000000000000000000000022
:103EA0000000000000000000000000000000000012
:103EB0000000000000000000000000000200007E82
:103EC000FB4FFF00F80100000000000000000000B0
:103ED00000000000000000000000000000000000E2
:103EE00000000000000000000000000000000000D2
:103EF0000000000200007EFB4FFF00F80100000000
:103F000000000000000000000000000000000000B1
:103F100000000000000000000000000000000000A1
:103F2000000000000000000000000200007EFB4FC7
:103F3000FF00F80100000000000000000000000089
:103F40000000000000000000000000000000000071
:103F50000000000000000000000000000000000061
:103F6000000200007EFB4FFF00F80100000000008F
:103F70000000000000000000000000000000000041
:103F80000000000000000000000000000000000031
:103F900000000000000000000200007EFB4FFF0058
:103FA000F801000000000000000000000000000018
:103FB0000000000000000000000000000000000001
:103FC00000000000000000000000000000000002EF
:103FD00000007EFB4FFF00F8010000000000000021
:103FE00000000000000000000000000000000000D1
:103FF00000000000000000000000000000000000C1
:104000000000000000000200007EFB4FFF00F801EE
:1040100000000000000000000000000000000000A0
:104020000000000000000000000000000000000090
:10403000000000000000000000000000000200007E
:104040007EFB4FFF00F801000000000000000000B0
:104050000000000000000000000000000000000060
:104060000000000000000000000000000000000050
:10407000000000000200007EFB4FFF00F80100007E
:104080000000000000000000000000000000000030
:104090000000000000000000000000000000000020
:1040A00000000000000000000000000200007EFB95
:1040B0004FFF00F8010000000000000000000000B9
:1040C00000000000000000000000000000000000F0
:1040D00000000000000000000000000000000000E0
:1040E00000000200007EFB4FFF00F801000000000E
:1040F00000000000000000000000000000000000C0
:1041000000000000000000000000000000000000AF
:104110000000000000000000000200007EFB4FFFD6
:1041200000F8010000000000000000000000000096
:10413000000000000000000000000000000000007F
:10414000000000000000000000000000000000006F
:104150000200007EFB4FFF00F8010000000000009D
:10416000000000000000000000000000000000004F
:10417000000000000000000000000000000000003F
:10418000000000000000000200007EFB4FFF00F86E
:10419000010000000000000000000000000000001E
:1041A000000000000000000000000000000000000F
:1041B00000000000000000000000000000000200FD
:1041C000007EFB4FFF00F80100000000000000002F
:1041D00000000000000000000000000000000000DF
:1041E00000000000000000000000000000000000CF
:1041F00000000000000200007EFB4FFF00F80100FD
:1042000000000000000000000000000000000000AE
:10421000000000000000000000000000000000009E
:104220000000000000000000000000000200007E0E
:10423000FB4FFF00F801000000000000000000003C
:10424000000000000000000000000000000000006E
:10425000000000000000000000000000000000005E
:104260000000000200007EFB4FFF00F8010000008C
:10427000000000000000000000000000000000003E
:10428000000000000000000000000000000000002E
:10429000000000000000000000000200007EFB4F54
:1042A000FF00F80100000000000000000000000016
:1042B00000000000000000000000000000000000FE
:1042C00000000000000000000000000000000000EE
:1042D000000200007EFB4FFF00F80100000000001C
:1042E00000000000000000000000000000000000CE
:1042F00000000000000000000000000000000000BE
:1043000000000000000000000200007EFB4FFF00E4
:10431000F8010000000000000000000000000000A4
:10432000000000000000000000000000000000008D
:10433000000000000000000000000000000000027B
:1043400000007EFB4FFF00F80100000000000000AD
:10435000000000000000000000000000000000005D
:10436000000000000000000000000000000000004D
:104370000000000000000200007EFB4FFF00F8017B
:10438000000000000000000000000000000000002D
:10439000000000000000000000000000000000001D
:1043A000000000000000000000000000000200000B
:1043B0007EFB4FFF00F8010000000000000000003D
:1043C00000000000000000000000000000000000ED
:1043D00000000000000000000000000000000000DD
:1043E000000000000200007EFB4FFF00F80100000B
:1043F00000000000000000000000000000000000BD
:1044000000000000000000000000000000000000AC
:1044100000000000000000000000000200007EFB21
:104420004FFF00F801000000000000000000000045
:10443000000000000000000000000000000000007C
:10444000000000000000000000000000000000006C
:1044500000000200007EFB4FFF00F801000000009A
:10446000000000000000000000000000000000004C
:10447000000000000000000000000000000000003C
:104480000000000000000000000200007EFB4FFF63
:1044900000F8010000000000000000000000000023
:1044A000000000000000000000000000000000000C
:1044B00000000000000000000000000000000000FC
:1044C0000200007EFB4FFF00F8010000000000002A
:1044D00000000000000000000000000000000000DC
:1044E00000000000000000000000000000000000CC
:1044F000000000000000000200007EFB4FFF00F8FB
:1045000001000000000000000000000000000000AA
:10451000000000000000000000000000000000009B
:104520000000000000000000000000000000020089
:10453000007EFB4FFF00F8010000000000000000BB
:10454000000000000000000000000000000000006B
:10455000000000000000000000000000000000005B
:1045600000000000000200007EFB4FFF00F8010089
:10457000000000000000000000000000000000003B
:10458000000000000000000000000000000000002B
:104590000000000000000000000000000200007E9B
:1045A000FB4FFF00F80100000000000000000000C9
:1045B00000000000000000000000000000000000FB
:1045C00000000000000000000000000000000000EB
:1045D0000000000200007EFB4FFF00F80100000019
:1045E00000000000000000000000000000000000CB
:1045F00000000000000000000000000000000000BB
:10460000000000000000000000000200007EFB4FE0
:10461000FF00F801000000000000000000000000A2
:10462000000000000000000000000000000000008A
:10463000000000000000000000000000000000007A
:10464000000200007EFB4FFF00F8010000000000A8
:10465000000000000000000000000000000000005A
:10466000000000000000000000000000000000004A
:1046700000000000000000000200007EFB4FFF0071
:10468000F801000000000000000000000000000031
:10469000000000000000000000000000000000001A
:1046A0000000000000000000000000000000000208
:1046B00000007EFB4FFF00F801000000000000003A
:1046C00000000000000000000000000000000000EA
:1046D00000000000000000000000000000000000DA
:1046E0000000000000000200007EFB4FFF00F80108
:1046F00000000000000000000000000000000000BA
:1047000000000000000000000000000000000000A9
:104710000000000000000000000000000002000097
:104720007EFB4FFF00F801000000000000000000C9
:104730000000000000000000000000000000000079
:104740000000000000000000000000000000000069
:10475000000000000200007EFB4FFF00F801000097
:104760000000000000000000000000000000000049
:104770000000000000000000000000000000000039
:1047800000000000000000000000000200007EFBAE
:104790004FFF00F8010000000000000000000000D2
:1047A0000000000000000000000000000000000009
:1047B00000000000000000000000000000000000F9
:1047C00000000200007EFB4FFF00F8010000000027
:1047D00000000000000000000000000000000000D9
:1047E00000000000000000000000000000000000C9
:1047F0000000000000000000000200007EFB4FFFF0
:1048000000F80100000000000000000000000000AF
:104810000000000000000000000000000000000098
:104820000000000000000000000000000000000088
:104830000200007EFB4FFF00F801000000000000B6
:104840000000000000000000000000000000000068
:104850000000000000000000000000000000000058
:10486000000000000000000200007EFB4FFF00F887
:104870000100000000000000000000000000000037
:104880000000000000000000000000000000000028
:104890000000000000000000000000000000020016
:1048A000007EFB4FFF00F801000000000000000048
:1048B00000000000000000000000000000000000F8
:1048C00000000000000000000000000000000000E8
:1048D00000000000000200007EFB4FFF00F8010016
:1048E00000000000000000000000000000000000C8
:1048F00000000000000000000000000000000000B8
:104900000000000000000000000000000200007E27
:10491000FB4FFF00F8010000000000000000000055
:104920000000000000000000000000000000000087
:104930000000000000000000000000000000000077
:104940000000000200007EFB4FFF00F801000000A5
:104950000000000000000000000000000000000057
:104960000000000000000000000000000000000047
:10497000000000000000000000000200007EFB4F6D
:10498000FF00F8010000000000000000000000002F
:104990000000000000000000000000000000000017
:1049A0000000000000000000000000000000000007
:1049B000000200007EFB4FFF00F801000000000035
:1049C00000000000000000000000000000000000E7
:1049D00000000000000000000000000000000000D7
:1049E00000000000000000000200007EFB4FFF00FE
:1049F000F8010000000000000000000000000000BE
:104A000000000000000000000000000000000000A6
:104A10000000000000000000000000000000000294
:104A200000007EFB4FFF00F80100000000000000C6
:104A30000000000000000000000000000000000076
:104A40000000000000000000000000000000000066
:104A50000000000000000200007EFB4FFF00F80194
:104A60000000000000000000000000000000000046
:104A70000000000000000000000000000000000036
:104A80000000000000000000000000000002000024
:104A90007EFB4FFF00F80100000000000000000056
:104AA0000000000000000000000000000000000006
:104AB00000000000000000000000000000000000F6
:104AC000000000000200007EFB4FFF00F801000024
:104AD00000000000000000000000000000000000D6
:104AE00000000000000000000000000000000000C6
:104AF00000000000000000000000000200007EFB3B
:104B00004FFF00F80100000000000000000000005E
:104B10000000000000000000000000000000000095
:104B20000000000000000000000000000000000085
:104B300000000200007EFB4FFF00F80100000000B3
:104B40000000000000000000000000000000000065
:104B50000000000000000000000000000000000055
:104B60000000000000000000000200007EFB4FFF7C
:104B700000F801000000000000000000000000003C
:104B80000000000000000000000000000000000025
:104B90000000000000000000000000000000000015
:104BA0000200007EFB4FFF00F80100000000000043
:104BB00000000000000000000000000000000000F5
:104BC00000000000000000000000000000000000E5
:104BD000000000000000000200007EFB4FFF00F814
:104BE00001000000000000000000000000000000C4
:104BF00000000000000000000000000000000000B5
:104C000000000000000000000000000000000200A2
:104C1000007EFB4FFF00F8010000000000000000D4
:104C20000000000000000000000000000000000084
:104C30000000000000000000000000000000000074
:104C400000000000000200007EFB4FFF00F80100A2
:104C50000000000000000000000000000000000054
:104C60000000000000000000000000000000000044
:104C70000000000000000000000000000200007EB4
:104C8000FB4FFF00F80100000000000000000000E2
:104C90000000000000000000000000000000000014
:104CA0000000000000000000000000000000000004
:104CB0000000000200007EFB4FFF00F80100000032
:104CC00000000000000000000000000000000000E4
:104CD00000000000000000000000000000000000D4
:104CE000000000000000000000000200007EFB4FFA
:104CF000FF00F801000000000000000000000000BC
:104D000000000000000000000000000000000000A3
:104D10000000000000000000000000000000000093
:104D2000000200007EFB4FFF00F8010000000000C1
:104D30000000000000000000000000000000000073
:104D40000000000000000000000000000000000063
:104D500000000000000000000200007EFB4FFF008A
:104D6000F80100000000000000000000000000004A
:104D70000000000000000000000000000000000033
:104D80000000000000000000000000000000000221
:104D900000007EFB4FFF00F8010000000000000053
:104DA0000000000000000000000000000000000003
:104DB00000000000000000000000000000000000F3
:104DC0000000000000000200007EFB4FFF00F80121
:104DD00000000000000000000000000000000000D3
:104DE00000000000000000000000000000000000C3
:104DF00000000000000000000000000000020000B1
:104E00007EFB4FFF00F801000000000000000000E2
:104E10000000000000000000000000000000000092
:104E20000000000000000000000000000000000082
:104E3000000000000200007EFB4FFF00F8010000B0
:104E40000000000000000000000000000000000062
:104E50000000000000000000000000000000000052
:104E600000000000000000000000000200007EFBC7
:104E70004FFF00F8010000000000000000000000EB
:104E80000000000000000000000000000000000022
:104E90000000000000000000000000000000000012
:104EA00000000200007EFB4FFF00F8010000000040
:104EB00000000000000000000000000000000000F2
:104EC00000000000000000000000000000000000E2
:104ED0000000000000000000000200007EFB4FFF09
:104EE00000F80100000000000000000000000000C9
:104EF00000000000000000000000000000000000B2
:104F000000000000000000000000000000000000A1
:104F10000200007EFB4FFF00F801000000000000CF
:104F20000000000000000000000000000000000081
:104F30000000000000000000000000000000000071
:104F4000000000000000000200007EFB4FFF00F8A0
:104F50000100000000000000000000000000000050
:104F60000000000000000000000000000000000041
:104F7000000000000000000000000000000002002F
:104F8000007EFB4FFF00F801000000000000000061
:104F90000000000000000000000000000000000011
:104FA0000000000000000000000000000000000001
:104FB00000000000000200007EFB4FFF00F801002F
:104FC00000000000000000000000000000000000E1
:104FD00000000000000000000000000000000000D1
:104FE0000000000000000000000000000200007E41
:104FF000FB4FFF00F801000000000000000000006F
:1050000000000000000000000000000000000000A0
:105010000000000000000000000000000000000090
:105020000000000200007EFB4FFF00F801000000BE
:105030000000000000000000000000000000000070
:105040000000000000000000000000000000000060
:10505000000000000000000000000200007EFB4F86
:10506000FF00F80100000000000000000000000048
:105070000000000000000000000000000000000030
:105080000000000000000000000000000000000020
:10509000000200007EFB4FFF00F80100000000004E
:1050A0000000000000000000000000000000000000
:1050B00000000000000000000000000000000000F0
:1050C00000000000000000000200007EFB4FFF0017
:1050D000F8010000000000000000000000000000D7
:1050E00000000000000000000000000000000000C0
:1050F00000000000000000000000000000000002AE
:1051000000007EFB4FFF00F80100000000000000DF
:10511000000000000000000000000000000000008F
:10512000000000000000000000000000000000007F
:105130000000000000000200007EFB4FFF00F801AD
:10514000000000000000000000000000000000005F
:10515000000000000000000000000000000000004F
:10516000000000000000000000000000000200003D
:105170007EFB4FFF00F8010000000000000000006F
:10518000000000000000000000000000000000001F
:10519000000000000000000000000000000000000F
:1051A000000000000200007EFB4FFF00F80100003D
:1051B00000000000000000000000000000000000EF
:1051C00000000000000000000000000000000000DF
:1051D00000000000000000000000000200007EFB54
:1051E0004FFF00F801000000000000000000000078
:1051F00000000000000000000000000000000000AF
:10520000000000000000000000000000000000009E
:1052100000000300007EFB4FFF00F80100000000CB
:10522000000000000000000000000000000000007E
:10523000000000000000000000000000000000006E
:105240000000000000000000000300007EFB4FFF94
:1052500000F8010000000000000000000000000055
:10526000000000000000000000000000000000003E
:10527000000000000000000000000000000000002E
:105280000300007EFB4FFF00F8010000000000005B
:10529000000000000000000000000000000000000E
:1052A00000000000000000000000000000000000FE
:1052B000000000000000000300007EFB4FFF00F82C
:1052C00001000000000000000000000000000000DD
:1052D00000000000000000000000000000000000CE
:1052E00000000000000000000000000000000300BB
:1052F000007EFB4FFF00F8010000000000000000EE
:10530000000000000000000000000000000000009D
:10531000000000000000000000000000000000008D
:1053200000000000000300007EFB4FFF00F80100BA
:10533000000000000000000000000000000000006D
:10534000000000000000000000000000000000005D
:105350000000000000000000000000000300007ECC
:10536000FB4FFF00F80100000000000000000000FB
:10537000000000000000000000000000000000002D
:10538000000000000000000000000000000000001D
:105390000000000300007EFB4FFF00F8010000004A
:1053A00000000000000000000000000000000000FD
:1053B00000000000000000000000000000000000ED
:1053C000000000000000000000000300007EFB4F12
:1053D000FF00F801000000000000000000000000D5
:1053E00000000000000000000000000000000000BD
:1053F00000000000000000000000000000000000AD
:10540000000300007EFB4FFF00F8010000000000D9
:10541000000000000000000000000000000000008C
:10542000000000000000000000000000000000007C
:1054300000000000000000000300007EFB4FFF00A2
:10544000F801000000000000000000000000000063
:10545000000000000000000000000000000000004C
:105460000000000000000000000000000000000339
:1054700000007EFB4FFF00F801000000000000006C
:10548000000000000000000000000000000000001C
:10549000000000000000000000000000000000000C
:1054A0000000000000000300007EFB4FFF00F80139
:1054B00000000000000000000000000000000000EC
:1054C00000000000000000000000000000000000DC
:1054D00000000000000000000000000000030000C9
:1054E0007EFB4FFF00F801000000000000000000FC
:1054F00000000000000000000000000000000000AC
:10550000000000000000000000000000000000009B
:10551000000000000300007EFB4FFF00F8010000C8
:10552000000000000000000000000000000000007B
:10553000000000000000000000000000000000006B
:1055400000000000000000000000000300007EFBDF
:105550004FFF00F801000000000000000000000004
:10556000000000000000000000000000000000003B
:10557000000000000000000000000000000000002B
:1055800000000300007EFB4FFF00F8010000000058
:10559000000000000000000000000000000000000B
:1055A00000000000000000000000000000000000FB
:1055B0000000000000000000000300007EFB4FFF21
:1055C00000F80100000000000000000000000000E2
:1055D00000000000000000000000000000000000CB
:1055E00000000000000000000000000000000000BB
:1055F0000300007EFB4FFF00F801000000000000E8
:10560000000000000000000000000000000000009A
:10561000000000000000000000000000000000008A
:10562000000000000000000300007EFB4FFF00F8B8
:105630000100000000000000000000000000000069
:10564000000000000000000000000000000000005A
:105650000000000000000000000000000000030047
:10566000007EFB4FFF00F80100000000000000007A
:10567000000000000000000000000000000000002A
:10568000000000000000000000000000000000001A
:1056900000000000000300007EFB4FFF00F8010047
:1056A00000000000000000000000000000000000FA
:1056B00000000000000000000000000000000000EA
:1056C0000000000000000000000000000300007E59
:1056D000FB4FFF00F8010000000000000000000088
:1056E00000000000000000000000000000000000BA
:1056F00000000000000000000000000000000000AA
:105700000000000300007EFB4FFF00F801000000D6
:105710000000000000000000000000000000000089
:105720000000000000000000000000000000000079
:10573000000000000000000000000300007EFB4F9E
:10574000FF00F80100000000000000000000000061
:105750000000000000000000000000000000000049
:105760000000000000000000000000000000000039
:10577000000300007EFB4FFF00F801000000000066
:105780000000000000000000000000000000000019
:105790000000000000000000000000000000000009
:1057A00000000000000000000300007EFB4FFF002F
:1057B000F8010000000000000000000000000000F0
:1057C00000000000000000000000000000000000D9
:1057D00000000000000000000000000000000003C6
:1057E00000007EFB4FFF00F80100000000000000F9
:1057F00000000000000000000000000000000000A9
:105800000000000000000000000000000000000098
:105810000000000000000300007EFB4FFF00F801C5
:105820000000000000000000000000000000000078
:105830000000000000000000000000000000000068
:105840000000000000000000000000000003000055
:105850007EFB4FFF00F80100000000000000000088
:105860000000000000000000000000000000000038
:105870000000000000000000000000000000000028
:10588000000000000300007EFB4FFF00F801000055
:105890000000000000000000000000000000000008
:1058A00000000000000000000000000000000000F8
:1058B00000000000000000000000000300007EFB6C
:1058C0004FFF00F801000000000000000000000091
:1058D00000000000000000000000000000000000C8
:1058E00000000000000000000000000000000000B8
:1058F00000000300007EFB4FFF00F80100000000E5
:105900000000000000000000000000000000000097
:105910000000000000000000000000000000000087
:105920000000000000000000000300007EFB4FFFAD
:1059300000F801000000000000000000000000006E
:105940000000000000000000000000000000000057
:105950000000000000000000000000000000000047
:105960000300007EFB4FFF00F80100000000000074
:105970000000000000000000000000000000000027
:105980000000000000000000000000000000000017
:10599000000000000000000300007EFB4FFF00F845
:1059A00001000000000000000000000000000000F6
:1059B00000000000000000000000000000000000E7
:1059C00000000000000000000000000000000300D4
:1059D000007EFB4FFF00F801000000000000000007
:1059E00000000000000000000000000000000000B7
:1059F00000000000000000000000000000000000A7
:105A000000000000000300007EFB4FFF00F80100D3
:105A10000000000000000000000000000000000086
:105A20000000000000000000000000000000000076
:105A30000000000000000000000000000300007EE5
:105A4000FB4FFF00F8010000000000000000000014
:105A50000000000000000000000000000000000046
:105A60000000000000000000000000000000000036
:105A70000000000300007EFB4FFF00F80100000063
:105A80000000000000000000000000000000000016
:105A90000000000000000000000000000000000006
:105AA000000000000000000000000300007EFB4F2B
:105AB000FF00F801000000000000000000000000EE
:105AC00000000000000000000000000000000000D6
:105AD00000000000000000000000000000000000C6
